:100000000C94F6000C94A2090C947B090C945409EE
:100010000C942D090C941E010C941E010C940609DD
:100020000C941E010C94610E0C94C9090C94380AAE
:100030000C941E010C941E010C941E010C941E01C4
:100040000C941E010C941E010C941E010C941E01B4
:100050000C941E010C941E010C941E010C94BC08FF
:100060000C941E010C941E010C941E010C941E0194
:100070000C941E010C941E010C941E010C941E0184
:100080000C941E010C941E010C941E010C941E0174
:100090000C94AC0E0C941E010C941E010C941E01C9
:1000A0000C941E010C946A0C0C941E01080B0002A7
:1000B0000202000009040000010202000005240001
:1000C0001001052401010104240206052406000193
:1000D0000705810310004009040100020A00000026
:1000E00007050202400000070583024000000403E8
:1000F000090412010002EF020140FB1F002300016E
:1001000001020301506F6C6F6C7520436F72706F4A
:10011000726174696F6E00506F6C6F6C7520412D49
:10012000537461722033325534004661696C6564E2
:1001300020746F20696E697469616C697A65204901
:100140004D552073656E736F72732E00413A2025F2
:1001500036642025366420253664202020204D3A40
:100160002025366420253664202536642020202072
:10017000473A202536642025366420253664000061
:10018000000000250028002B002E0031000404048C
:10019000040403040502020202040302020202062E
:1001A000060606060604040202020404040802010C
:1001B00010408040102040804080080204018040B0
:1001C000201002011080102040402000000002009A
:1001D000090F0000030401000C00000000000000F3
:1001E00000000000000000000000CB0F11241FBE23
:1001F000CFEFDAE0DEBFCDBF11E0A0E0B1E0ECED83
:10020000FAE202C005900D92A636B107D9F723E0B5
:10021000A6E6B1E001C01D92AA33B207E1F710E0F3
:10022000C6EFD0E004C02197FE010E944C15C53FE7
:10023000D107C9F70E94EC0F0C946C150C940000C8
:10024000FC0180915702882311F13FB7F89482E0B6
:100250008093E9002091F200822F90E01816190691
:1002600014F481E090E0882339F0289844E6409324
:1002700056024091F1004083222339F02091F20090
:10028000211103C02BE62093E8003FBF08958FEFB4
:100290009FEF08952FB7F89483E08093E900909141
:1002A000E800892F807295FF04C09091F20080E4ED
:1002B000891B2FBF089580914E0281110DC082E0ED
:1002C00080934A0284E080934B0210924D02109278
:1002D0004C0281E080934E028AE492E00895282F38
:1002E00030E0F901E553FE4F9491F901E455FE4FDA
:1002F000849123573E4FF9012491222309F430C001
:100300009923E9F091509F30D0F4E92FF0E0E557C0
:10031000FE4F0C944C15B901BD019A01B101B50114
:100320009F019F019F01C001C601CA01CE01D401F6
:100330009F01D801909180009F7790938000E22FD9
:10034000F0E0EE0FFF1FE158FE4FA591B4919FB76B
:10035000F894EC91611132C080958E238C939FBFED
:100360000895909180009F7DE8CF90918000977FC5
:10037000E4CF94B59F7794BDE2CF94B59F7DFBCF3A
:10038000909190009F7790939000D9CF909190009A
:100390009F7DF9CF90919000977FF5CF9091C0000D
:1003A0009F779093C000CBCF9091C0009F7DF9CFF5
:1003B0009091C200977F9093C200C1CF8E2BCECF79
:1003C0003FB7F8948091460290914702A09148026D
:1003D000B091490226B5A89B05C02F3F19F00196A0
:1003E000A11DB11D3FBFBA2FA92F982F8827BC018F
:1003F000CD01620F711D811D911D42E0660F771FB7
:10040000881F991F4A95D1F708958F929F92AF92B6
:10041000BF92CF92DF92EF92FF924B015C010E945C
:10042000E0016B017C010E94E0016C197D098E09DD
:100430009F09683E734081059105A8F321E0821A67
:100440009108A108B10888EEC80E83E0D81EE11C0F
:10045000F11C81149104A104B10429F7FF90EF90DD
:10046000DF90CF90BF90AF909F908F9008950895A8
:10047000089508954091BF015091C0012091BD01A0
:100480003091BE0142175307B4F49091E800957083
:10049000E1F39091E80092FD19C08093F100809102
:1004A000BF019091C00101968F739927892B19F490
:1004B0008EEF8093E8008091BF019091C00101967A
:1004C0009093C0018093BF0181E0089580E008957A
:1004D000EF92FF920F931F93CF93DF93F82E192F74
:1004E000E62E042F81E0860F880F0E943A0283E0F7
:1004F0000E943A02CF2DD12FEC0EFD2EF11CCE150D
:10050000DF05B9F007FF13C0FE0184910E943A0293
:10051000182F80E00E943A02812321968111EFCFAB
:10052000DF91CF911F910F91FF90EF9008958881F7
:10053000EDCF81E0F5CFDF92EF92FF920F931F9303
:10054000CF93DF93D82E8A01EB017B01E40EF51ED9
:10055000CE15DF0559F0D7FE12C0FE0184910E942E
:100560003A0221968111F4CF0FEF1FEFC801DF91FE
:10057000CF911F910F91FF90EF90DF9008958881A8
:10058000EECF0F931F93CF93DF931F92CDB7DEB7BC
:1005900082E0898342E450E06CEA70E080E80E94E7
:1005A0009B020E945B01DC0112960D911C910115CA
:1005B000110589F0D801ED91FC910280F381E02DC5
:1005C000BE016F5F7F4FC801099597FD04C0F80118
:1005D00000851185ECCF89810F90DF91CF911F911C
:1005E0000F910895615030F02091F100FC012083BB
:1005F0000196F8CF289884E68093560208958F924A
:100600009F92AF92BF92CF92DF92EF92FF920F93A1
:100610001F93CF93DF936C017B018A0180911501B9
:10062000882309F45CC080915702882309F457C0DD
:100630008091C30180FF05C08091E00082608093BB
:10064000E000E801B12C8AEFA82E93E0892E2AE37E
:10065000922E209711F4BB20D9F10E944A018111FA
:100660000AC0AA94AA20D9F161E070E080E090E08D
:100670000E940502EECF8C171D0611F00CF08C2F96
:100680009FB7F8948092E9002091E80025FD02C010
:100690009FBFDFCF282F30E0C21BD30BF701815063
:1006A00020F041914093F100FACFE20EF31EBB20FF
:1006B00021F09092E800B12CEBCF8091E80085FD0D
:1006C000E7CF9092E800BB24B394209709F3F3CFCF
:1006D0005D9884E68093C201101611063CF081E01B
:1006E00090E0F6019383828310E000E0C801DF917F
:1006F000CF911F910F91FF90EF90DF90CF90BF901F
:10070000AF909F908F900895CF93DF931F92CDB7B6
:10071000DEB76983DC01ED91FC910280F381E02D6D
:1007200041E050E0BE016F5F7F4F09950F90DF9170
:10073000CF91089583E08093E9008091F2008823AF
:1007400019F08AE38093E80008950E944A0190E03E
:100750000895CF93DF931F92CDB7DEB7FC01848558
:10076000958597FD08C02FEF3FEF358724870F90C1
:10077000DF91CF910895CE0101960E94200101974B
:1007800019F4898190E0F3CF8FEF9FEFF0CF0F93B3
:100790001F93CF93DF931F92CDB7DEB78C01FC017F
:1007A0008485958597FF0BC0CE0101960E9420019C
:1007B000019771F4898190E0F80195878487F801A9
:1007C000848595850F90DF91CF911F910F910895AA
:1007D0008FEF9FEFF1CFFC018485958597FD0BC0CE
:1007E0009FB7F89482E08093E9008091F2009FBF68
:1007F00090E0019608959FB7F89482E08093E90015
:100800008091F2009FBF90E008958091BA01E0913D
:10081000BB01F091BC01882339F084919FEB980FC4
:100820009A3120F4805E08958081F8CF803269F497
:100830002091BB013091BC01A9014F5F5F4F5093E4
:10084000BC014093BB01232B01F708951F93CF9365
:10085000DF930E940504D0E0C0E01AE090ED980F0D
:100860009A30B8F41C9F90011D9F300D1124E901AE
:10087000C80FD11D87FDDA95E0978091BB0190915B
:10088000BC0101969093BC018093BB010E940504BA
:10089000E5CFCE01DF91CF911F9108953F924F9206
:1008A0005F926F927F928F929F92AF92BF92CF9200
:1008B000DF92EF92FF920F931F93CF93DF937B0111
:1008C000D42E2091B70121111BC021E02093B70144
:1008D000109272001092C00034E03093C10039E0F1
:1008E0003093C2002093C30023E02093BF0028EE82
:1008F0002093D1001092BF001092D200579A7894A2
:1009000010920901CC24C39497FF03C09F77AAE0FB
:10091000CA2EC8E2CC9EC02D1124D0E08C179D07B2
:1009200050F021E0EC01C21206C0C13187E2D807C5
:1009300010F0C0E1D7E24E01B12CA12C4C2C512C6F
:10094000712C612C9E01AFEFB7E00E945215640D2F
:10095000751D861D971D9695879577956795A301BB
:1009600092010E940B1560E072E18AE790E0312C61
:100970003394621773078407950728F09695879537
:1009800077956795F5CFA30192010E94DB149E0134
:1009900036952795620F731F811D911DA501940146
:1009A0000E940B15722E022F132F2AE0C21207C0CD
:1009B000CE0105966AE070E00E94F714EB01C83E94
:1009C00083E0D80759F09701DE010E94521528EE06
:1009D00033E040E050E00E942D1579011092720042
:1009E0008091C100807F83298093C1001093BF0054
:1009F0007092D1004D2D403108F04FE080E190E041
:100A0000841B910902C0169507958A95E2F7109309
:100A1000BF000093D200F092B901E092B80189B30F
:100A20008FEF89BB84E080937200DF91CF911F919B
:100A30000F91FF90EF90DF90CF90BF90AF909F907D
:100A40008F907F906F905F904F903F90089520918E
:100A50008C01260F3327331F21323105ECF420910E
:100A6000B402FC0190E080E0243069F082E0089557
:100A7000A0918C012191AC0144595E4FA40FB52F78
:100A8000B11D2C930196861798F380918C01680F05
:100A900060938C0180E0089581E008951092B40283
:100AA00081E08093B30210928E0261E082E00E94A6
:100AB0006F0161E083E00E946F01E9EBF0E080816B
:100AC0008E7F808380818D7F808388E48093B800CF
:100AD00085E48093BC000895CF93DF9391E09093D9
:100AE0006B018823B9F0C091B800D091BA00809111
:100AF000BC008A7B8093BC0060E082E00E946F01B2
:100B000060E083E00E946F010E944E05D093BA001E
:100B1000C093B800DF91CF9108958F929F92AF92CA
:100B2000BF92CF92DF92EF92FF920F931F93CF93DA
:100B3000DF93D091DD02D13208F0D7C0182FC091D9
:100B4000DC020E94E0016B017C018091B402811102
:100B50006BC082E08093B4021093B3028FEF809356
:100B6000B2021092B102D093B002ACEBB2E0E0E975
:100B7000F2E080E0D81391C010928F0280918F0232
:100B8000CC0FC82BC0938F0280918E02813009F068
:100B900088C010928E020E94E0016B017C0180915E
:100BA0008F028093BB008091B6029091B702A09112
:100BB000B802B091B902892B8A2B8B2BA1F00E942D
:100BC000E0010091B6021091B7022091B802309175
:100BD000B9026C197D098E099F09061717072807A6
:100BE000390708F442C08091BC0083FDD8CF85EC62
:100BF0008093BC000E94E0016B017C018091B402F3
:100C0000823009F450C08091B2028F3F09F46FC066
:100C10008091B202803209F46CC08091B2028033BC
:100C200009F469C084E026C08091B6029091B702B1
:100C3000A091B802B091B902892B8A2B8B2B09F4B1
:100C400084CF0E94E0018090B6029090B702A090FD
:100C5000B802B090B9026C197D098E099F098616F9
:100C60009706A806B90608F070CF8091B5020E94D9
:100C70006C0585E01092BB021092DD021092BA0260
:100C8000DF91CF911F910F91FF90EF90DF90CF9068
:100C9000BF90AF909F908F9008959D9191938F5F9B
:100CA00069CF85EEA5CF8091B6029091B702A09151
:100CB000B802B091B902892B8A2B8B2B09F49ECFF5
:100CC0000E94E0010091B6021091B7022091B80293
:100CD0003091B9026C197D098E099F090617170713
:100CE0002807390708F08ACFC0CF81E0C3CF80E062
:100CF000C1CF82E0BFCF83E0BDCFCF92DF92EF9232
:100D0000FF920F931F93CF93DF93D82FC62F61329B
:100D100008F098C00E94E0016B017C018091B40250
:100D200081116BC081E08093B4028093B3029FEF86
:100D30009093B2021092B1029C0F9093B0028093F4
:100D40008F0280918F02DD0FD82BD0938F0280917C
:100D50008E02813009F078C010928E020E94E0016C
:100D60006B017C0180918F028093BB008091B60261
:100D70009091B702A091B802B091B902892B8A2B49
:100D80008B2BA1F00E94E0010091B6021091B702F6
:100D90002091B8023091B9026C197D098E099F0922
:100DA000061717072807390708F448C08091BC00C8
:100DB00083FDD8CF85EC8093BC000E94E0016B01DD
:100DC0007C018091B402813009F440C08091B1026D
:100DD0008C1710F4C091B102E0E9F2E0AAE5B2E0AC
:100DE00080E08C1355C08C2FDF91CF911F910F9114
:100DF000FF90EF90DF90CF9008958091B602909190
:100E0000B702A091B802B091B902892B8A2B8B2B23
:100E100009F484CF0E94E0010091B6021091B7025C
:100E20002091B8023091B9026C197D098E099F0991
:100E3000061717072807390708F070CF8091B50209
:100E40000E946C05C0E0CFCF85EEB5CF8091B60291
:100E50009091B702A091B802B091B902892B8A2B68
:100E60008B2B09F4AECF0E94E0010091B6021091E5
:100E7000B7022091B8023091B9026C197D098E0930
:100E80009F09061717072807390708F09ACFD6CF0A
:100E900091919D938F5FA5CF0895E0915902809124
:100EA0005802E81730F4F0E0E65AFD4F808190E0F8
:100EB00008958FEF9FEF0895909159028091580205
:100EC0002FEF3FEF981748F4E92FF0E0E65AFD4F77
:100ED000208130E09F5F90935902C901089580916D
:100EE000580290915902891B990B0895CF92DF9275
:100EF000EF92FF920F931F93CF93DF937C01CB016F
:100F00008A012091BA02222389F0EB016B01C40E01
:100F1000D51ECC15DD0569F06991D701ED91FC91E5
:100F20000190F081E02DC7010995F3CF642F0E9455
:100F30002705C801DF91CF911F910F91FF90EF908E
:100F4000DF90CF900895CF93DF931F92CDB7DEB798
:100F500069832091BA022223F9F02091DD02203228
:100F600058F021E030E0FC013383228390E080E000
:100F70000F90DF91CF9108958091BB02E82FF0E0B0
:100F8000E454FD4F998190838F5F8093BB028093DF
:100F9000DD0281E090E0ECCF61E0CE0101960E949D
:100FA0002705F7CFCF93C42F91E09093BA02809397
:100FB000DC021092BB021092DD028EE293E00E94EE
:100FC000A3076C2F8EE293E00E94A30781E00E94AA
:100FD0008D0580938C02CF91089590E080E0089574
:100FE000FC0101900020E9F73197AF01481B590B34
:100FF000BC018EED92E00C94FF02DF92EF92FF9223
:101000000F931F93CF93DF93182FEA0181E0809312
:10101000BA021093DC021092BB021092DD028EE243
:1010200093E00E94A30781E00E948D0580938C02CB
:1010300081110DC066E0812F0E947D061092590239
:1010400080935802863059F082E380938C02DF91BE
:10105000CF911F910F91FF90EF90DF9008958EE256
:1010600093E00E945C07E82E8EE293E00E945C070A
:10107000D82E8EE293E00E945C07082F8EE293E068
:101080000E945C07F82E8EE293E00E945C07182F06
:101090008EE293E00E945C0720E03D2D2E293983EB
:1010A000288320E03F2D202B3B832A8320E0382F0C
:1010B000212B3D832C83CBCFCF93C82F81E080930E
:1010C000BA02C093DC021092BB021092DD026FE004
:1010D0008EE293E00E94A30781E00E948D058111BA
:1010E0000FC061E08C2F0E947D0610925902809300
:1010F0005802813029F48EE293E0CF910C945C0782
:101100008FEF9FEFCF91089585ED8093BC00809184
:10111000B6029091B702A091B802B091B9020796B9
:10112000A11DB11D23E0B695A795979587952A95A2
:10113000D1F72091BC0024FD03C01092B4020895A1
:101140004091B6025091B7026091B8027091B90215
:10115000452B462B472B69F30097A105B10541F0BC
:101160002AE22A95F1F700C00197A109B109E1CF60
:101170008091B5020C946C051F920F920FB60F92DE
:1011800011242F933F938F939F93AF93BF9380919D
:10119000420290914302A0914402B09145023091E5
:1011A000410223E0230F2D3758F50196A11DB11DF3
:1011B000209341028093420290934302A093440201
:1011C000B09345028091460290914702A091480257
:1011D000B09149020196A11DB11D809346029093E2
:1011E0004702A0934802B0934902BF91AF919F91EB
:1011F0008F913F912F910F900FBE0F901F901895D8
:1012000026E8230F0296A11DB11DD2CF1F920F9287
:101210000FB60F9211242F933F934F935F936F93C9
:101220007F938F939F93AF93BF93EF93FF93E0913F
:101230001E01F0911F010995FF91EF91BF91AF91B0
:101240009F918F917F916F915F914F913F912F91DE
:101250000F900FBE0F901F9018951F920F920FB610
:101260000F9211242F933F934F935F936F937F932C
:101270008F939F93AF93BF93EF93FF93E0911C01E4
:10128000F0911D010995FF91EF91BF91AF919F9151
:101290008F917F916F915F914F913F912F910F901F
:1012A0000FBE0F901F9018951F920F920FB60F92BE
:1012B00011242F933F934F935F936F937F938F935B
:1012C0009F93AF93BF93EF93FF93E0911A01F09137
:1012D0001B010995FF91EF91BF91AF919F918F9164
:1012E0007F916F915F914F913F912F910F900FBE22
:1012F0000F901F9018951F920F920FB60F92112406
:101300002F933F934F935F936F937F938F939F930D
:10131000AF93BF93EF93FF93E0911801F091190100
:101320000995FF91EF91BF91AF919F918F917F911F
:101330006F915F914F913F912F910F900FBE0F9042
:101340001F9018951F920F920FB60F9211242F9392
:101350003F934F935F936F937F938F939F93AF933D
:10136000BF93EF93FF93E0911601F0911701099558
:10137000FF91EF91BF91AF919F918F917F916F916D
:101380005F914F913F912F910F900FBE0F901F9043
:1013900018951F920F920FB60F9211248F939F935F
:1013A0008091E1009091E100937F9093E10083FFB1
:1013B0000FC01092E90091E09093EB001092EC00C6
:1013C00092E39093ED001092570298E09093F00012
:1013D00082FF22C093E09093E9009091F20099235C
:1013E00019F09AE39093E8009091C201992341F09B
:1013F0009091C20191509093C201911101C05D9AE8
:1014000090915602992341F09091560291509093F9
:101410005602911101C0289A84FF18C08091E20001
:101420008E7E81608093E2008091E1008F7E8093C8
:10143000E1008091C3018E7E80618093C3019F9102
:101440008F910F900FBE0F901F90189580FFF7CFD0
:101450008091E2008E7E80618093E2008091E100C5
:101460008E7E8093E1008091C3018E7E8160E5CF06
:101470001F920F920FB60F921124CF92DF92EF922C
:10148000FF920F931F932F933F934F935F936F930D
:101490007F938F939F93AF93BF93EF93FF93CF93DC
:1014A000DF93CDB7DEB76C97DEBFCDBF1092E900FA
:1014B0008091E80083FF25C068E0CE0145960E9438
:1014C000F20282EF8093E8008D8987FF39C0909106
:1014D000E80090FFFCCF982F907609F034C19E89E8
:1014E0004F89588D2F89F88C911131C0803861F562
:1014F0008091C4018093F1001092F1008EEF8093EF
:10150000E8006C960FB6F894DEBF0FBECDBFDF913A
:10151000CF91FF91EF91BF91AF919F918F917F916B
:101520006F915F914F913F912F911F910F91FF907C
:10153000EF90DF90CF900F900FBE0F901F901895F7
:101540009EEF9093E800C7CF1092F100D5CF913075
:1015500059F48111D3CF4130510581F68091C401F6
:101560008D7F8093C401CACF933049F48111C6CFD7
:101570004130510519F68091C4018260F2CF953057
:1015800041F48091E80080FFFCCF20682093E300C5
:10159000B5CF963009F0A9C00B8D1C8D22E01092BA
:1015A000E9001092C0011092BF01F2122EC01092F9
:1015B000BE011092BD010E94C1021F8299E0998371
:1015C000FA8291E09E8390EA98879AEF998720911A
:1015D000BF013091C001275F3F4F3C832B838D8338
:1015E0001092E9001092C0011092BF011093BE0149
:1015F0000093BD0149E050E0BE016F5F7F4F80E086
:101600000E949B020E94C10279CF1093BE010093F9
:10161000BD010E945B01DC0112960D911C91011528
:10162000110509F451C1D801ED91FC910480F581B7
:10163000E02DBE016B5E7F4FC8010995009709F050
:101640003EC1F80100851185EACFF3E0FF120EC01C
:101650008F89882309F440C0823061F440E862E158
:1016600087E191E00E946802811148CF81E2809376
:10167000EB0047CF813029F440E862E184E091E05B
:10168000F1CF833099F70E945B01DC011296ED9057
:10169000FC908E010F5F1F4F6801E114F10479F097
:1016A000D701ED91FC910680F781E02DB801C701CB
:1016B0000995080F111DF701E084F184EECFD801E0
:1016C0001C92F60101900020E9F73197BF016C19D7
:1016D0007D0940E0C601C6CF6EEE70E0FB0144918B
:1016E00050E080E80E949B0209CF973009F4BECFFA
:1016F000983021F481E08093F10000CF993009F017
:10170000FDCE837009F0B2CFE9E3F1E081E031E092
:1017100096E32191222371F08093E9003093EB004E
:10172000DF0111972C912093EC009093ED008F5FD7
:10173000873079F78EE78093EA001092EA008F896C
:1017400080935702DBCE8B8D9C8D1092E900109216
:10175000C0011092BF019093BE018093BD01898D9D
:10176000811192C08E899D89913A49F4813209F0A4
:101770007DCF47E050E06EE071E080E0B3CF913282
:1017800009F074CF833269F48F89988DB0E0A0E0BE
:1017900080930A0190930B01A0930C01B0930D016B
:1017A000ADCE803269F48091E80082FFFCCF67E023
:1017B0008EE091E00E94F2028BEF8093E8009ECED3
:1017C000823209F09BCE8F8980931501EEEFFFE7FF
:1017D000859194918B3F9C4D51F1E0E0F8E0809130
:1017E0000E0190910F01A0911001B0911101803B69
:1017F0009440A105B105F1F48091150180FD1AC056
:10180000EE3F8AE0F80789F587E797E791838083C1
:10181000809160008093C10188E19BE00FB6F8944D
:10182000A895809360000FBE9093600067CEEEEFA6
:10183000FAE0D5CF808191818737974709F05ECE56
:10184000A895809160008861809360008091C101BB
:1018500080936000EE3F2AE0F20789F08091FE0A53
:101860009091FF0A9183808349CE8081918187374F
:10187000980751F29093FF0A8093FE0AC5CF109209
:10188000FF0A1092FE0A3ACE0E945B01DC0112961A
:101890000D911C910115110509F4E8CED801ED91C7
:1018A000FC910190F081E02DBE016B5E7F4FC8017D
:1018B0000995811123CEF80100851185EBCF18160B
:1018C00019060CF41BCED2CEF1E0FF12BECE62EFB1
:1018D00070E004CF1F920F920FB60F9211244F9217
:1018E0005F926F927F928F929F92AF92BF92CF92B0
:1018F000DF92EF92FF920F931F932F933F934F939B
:101900005F936F937F938F939F93AF93BF93CF9387
:10191000DF93EF93FF93C091B801D091B901CE014D
:1019200001979093B9018093B8012097A1F5109287
:10193000720078948091C100807F84608093C100A0
:1019400083E08093BF0088EE8093D1001092BF00A7
:101950001092D20081E0809309018091BB019091A7
:10196000BC01892BC1F08091B601811114C0709027
:1019700008018091B501882379F18091B401882311
:1019800059F16091B40170E040E088EE93E00E946C
:101990004E041092B401FF91EF91DF91CF91BF916E
:1019A000AF919F918F917F916F915F914F913F91F7
:1019B0002F911F910F91FF90EF90DF90CF90BF90EC
:1019C000AF909F908F907F906F905F904F900F900F
:1019D0000FBE0F901F9018955524539470ECA72EAE
:1019E0007DE5B72EEAE04E2EF4E06F2EA0EDCA2E74
:1019F000A7E0DA2EB4E0EB2EF12C04EF11E08FE03B
:101A0000882E912C0E9405042091BB013091BC01CD
:101A10002F5F3F4F3093BC012093BB01853609F403
:101A200073C00CF047C0813609F4B4C024F58C3380
:101A300009F468C08E3309F463C0813209F043C0F1
:101A400060920801D0920501C0920401F092070152
:101A5000E0920601109303010093020190920101AC
:101A6000809200011092B5017090080180910201EE
:101A700090910301C7CF833609F48FC010E00BE0CB
:101A8000843614F010E002E04CE0749E000D112446
:101A90000E940504982F977F933209F080C08091AF
:101AA000BB019091BC0101969093BC018093BB0156
:101AB0000F5FEECF8D3609F445C054F4873651F1EF
:101AC00034F18C3651F11092BC011092BB0163CFFE
:101AD000823709F44CC044F48F36A9F70E942604DB
:101AE000782E809308018ECF843709F443C086375F
:101AF00051F70E942604909301018093000182CF48
:101B0000739480CF7A947ECF10E004E0BDCF10E0D4
:101B100005E0BACF10E007E0B7CF0E94260490930B
:101B20000701809306018091040190910501609165
:101B30000601709107010E94F714709303016093EE
:101B4000020160CF0E9405048C3661F41092B50149
:101B50008091BB019091BC0101969093BC01809350
:101B6000BB0150CF5092B5011092B401F1CF11E0FA
:101B700000E08ACF0E942604BC01C5010E94F71430
:101B8000469EC001479E900D1124909305018093BD
:101B90000401C9CF10E009E077CF10E0E9CF8D3222
:101BA00069F48091BB019091BC0101969093BC01B6
:101BB0008093BB0101500E940504F1CFE090020127
:101BC000F09003018153883058F4E0900401F090C4
:101BD00005010E942604BC01C7010E94F7147B0185
:101BE0006701D694C7940E9405048E3261F48091F7
:101BF000BB019091BC0101969093BC018093BB0105
:101C0000EC0CFD1CEECF8091B501882349F0C70193
:101C1000969587958093B4018091B401E81AF108F4
:101C2000C0900001D0900101111104C00F3F11F0CC
:101C3000C11007C040E0B70188EE93E00E944E0457
:101C4000AACE013128F010EF100F103608F01FE572
:101C5000812F6CE00E94EB14582F44EF4503900154
:101C60001124210F311D2C30310538F4220F331F80
:101C7000F901E05EFE4FC081D1818730C1F0082EAE
:101C800002C0CC0FDD1F0A94E2F7823040F0CE0193
:101C900005966AE070E00E94F714CB0102C0CE0105
:101CA00090584C2D403108F04FE0B701C7CFCE011E
:101CB00026E0880F991F2A95E1F7029665E070E00B
:101CC000EACF1F920F920FB60F9211242F933F93DA
:101CD0004F936F937F938F939F938CB1282F30E016
:101CE0003595279535952795422F417083B190E022
:101CF00064E0959587956A95E1F782278170209138
:101D0000B3019091B2016091B0017091B1012827A7
:101D10009427291B330B260F371F3093B1012093D3
:101D2000B0012091B2019091B301281729F09417C6
:101D300019F091E09093AF018093B2014093B30109
:101D40009F918F917F916F914F913F912F910F9024
:101D50000FBE0F901F9018951F920F920FB60F9203
:101D600011242F933F934F935F936F937F938F93A0
:101D70009F93AF93BF93EF93FF938091B900887FB8
:101D8000803609F44AC0F0F5883209F4A7C018F586
:101D9000803109F49BC0B8F4882309F4F9C0883075
:101DA00009F494C0FF91EF91BF91AF919F918F91F2
:101DB0007F916F915F914F913F912F910F900FBE47
:101DC0000F901F901895883109F488C0803251F720
:101DD0008093B20214C0803409F49DC040F4803373
:101DE000B9F38833F9F68093B20285ECB0C0803540
:101DF00009F485C0883509F496C0883499F60E94A4
:101E00008408D0CF883909F48CC038F5883729F098
:101E100050F4883611F0803729F683E08093B402BD
:101E20001092AE0157C0883809F47BC0803919F090
:101E3000803809F0B7CF8091AE01803208F071C0D0
:101E4000E091AE0181E08E0F8093AE018091BB00E6
:101E5000F0E0E257FE4F80833DC0803B39F0E0F474
:101E6000803A09F479C0883A09F09CCF84E08093E5
:101E7000B40210928D0110928C01E091C701F09193
:101E8000C801099580918C0181110FC081E0809378
:101E90008C0110926C0109C0803C09F4A6CF883CEB
:101EA00009F4A3CF883B09F07DCFE0918D0181E05B
:101EB0008E0F80938D01F0E0E459FE4F8081809376
:101EC000BB0090918D0180918C0129C080918F027F
:101ED0008093BB0085EC8093BC0064CF9091B102ED
:101EE0008091B002981758F5E091B10281E08E0F11
:101EF0008093B102F0E0E057FD4F8081E9CFE0919F
:101F0000B10281E08E0F8093B1028091BB00F0E0BE
:101F1000E057FD4F80839091B1028091B0029817F5
:101F2000C8F285E8D8CFE091B10281E08E0F8093AE
:101F3000B1028091BB00F0E0E057FD4F80838091BB
:101F4000B30281115CCF81E080938E0284EA80939A
:101F5000BC001092B40226CF85EC8093BC00109296
:101F6000B4028091AE01803230F4E091AE01F0E035
:101F7000E257FE4F10826091AE0170E0E091C50122
:101F8000F091C6018EE891E009951092AE010ACF5A
:101F90001092B20234CFEEEDF2E01382128288EE9C
:101FA00093E0A0E0B0E084839583A683B78323E425
:101FB00031E0318320832FEF3FEF35872487EEE236
:101FC000F3E01382128284839583A683B78385E529
:101FD00091E0918380830895789484B5826084BD74
:101FE00084B5816084BD85B5826085BD85B581601D
:101FF00085BD80916E00816080936E00109281009B
:102000008091810082608093810080918100816055
:102010008093810080918000816080938000809116
:102020009100826080939100809191008160809303
:102030009100809190008160809390008091C10018
:1020400084608093C1008091C10082608093C10050
:102050008091C10081608093C1008091C300816044
:102060008093C3008091C00082608093C000809103
:10207000C20081608093C20080917A008460809366
:102080007A0080917A00826080937A0080917A0051
:10209000816080937A0080917A00806880937A00D2
:1020A000109257021092C4011092C3018091D70080
:1020B00081608093D70080EA8093D80089B58061E1
:1020C00089BD89B5826089BD09B400FEFDCF61E09C
:1020D00070E080E090E00E9405028091D8008F7C43
:1020E00080618093D8008091E000807F8093E00041
:1020F0008091E1008E7E8093E1008DE08093E2008C
:10210000559A209A10925902109258021092BB02CE
:102110001092DD020E944E0587E392E09093C80181
:102120008093C70188E392E09093C6018093C50134
:102130008DE10E945C088934910509F097C08BE617
:102140000E945C08873D910509F090C081E0809372
:102150008D0280918D02813009F4AFC0823009F484
:10216000E8C0CCE4D1E088E7F82E09EC11E090E07B
:10217000C92E90E0D92E80918D02813009F413C1CF
:10218000823009F417C180918C02811114C08091B2
:102190008D02813009F413C1823009F417C1809196
:1021A0008C02811108C080918D02813009F412C126
:1021B000823009F416C1809185028F938091840248
:1021C0008F93809183028F93809182028F9380916D
:1021D00081028F93809180028F9380918B028F93E5
:1021E00080918A028F93809189028F9380918802D7
:1021F0008F93809187028F93809186028F93809135
:102200007F028F9380917E028F9380917D028F93C6
:1022100080917C028F9380917B028F9380917A02D0
:102220008F93DF93CF931F92FF921F930F930E9480
:10223000F61189EC91E00E94F00783E691E00E949C
:10224000F00764E670E080E090E00E940502EDB7E0
:10225000FEB778960FB6F894FEBF0FBEEDBFC1145F
:10226000D10409F488CF0E94000085CF8BE60E943C
:102270005C088936910539F48EE10E945C08CD979F
:1022800011F482E064CF2898209ACAE2D1E0FE01DE
:102290006491662339F08EED92E00E9484032196CA
:1022A000892BA9F783E691E00E94F00764E670E0CD
:1022B00080E090E00E940502E8CF47E560E28DE112
:1022C0000E94D20780918C0281114BCF40E061E2E5
:1022D0008DE10E94D20780918C02811142CF44E6A9
:1022E00064E28DE10E94D20780918C02811139CF86
:1022F00040E265E28DE10E94D20780918C0281115B
:1023000030CF40E066E28DE10E94D20780918C02DE
:10231000811127CF4FE760E28BE60E94D2078091C0
:102320008C0281111ECF40E063E28BE60E94D2074F
:1023300018CF40E360E18BE60E94D20780918C02C7
:1023400081110FCF40E561E18BE60E94D2078091B9
:102350008C02811106CF44E062E18BE60E94D20735
:1023600080918C028111FDCE40E760E28EE10E94F7
:10237000D20780918C028111F4CE40E061E28EE1BF
:102380000E94D20780918C028111EBCE40E062E284
:102390008EE10E94D20780918C028111E2CE4CE046
:1023A00063E28EE1C3CF4AE752E068EA8DE10E9422
:1023B000FD07E9CE4AE752E068E28BE6F8CF40E855
:1023C00052E068EA8BE60E94FD07E9CE40E852E061
:1023D00062E2F8CF46E852E068E88DE10E94FD072E
:1023E000EACE46E852E068EA8EE1F8CFAEE0B0E02F
:1023F000ECEFF1E10C94B2140D891E898F89988D50
:102400002EE02C831A83098397FF02C080E090E8B6
:1024100001979E838D83AE01455E5F4F698D7A8DF6
:10242000CE0101960E9426124D815E8157FD0AC0A1
:102430002F813885421753070CF49A01020F131F9E
:10244000F80110822E96E4E00C94CE14ABE0B0E0DC
:10245000ECE2F2E10C94A4147C013B018A01FC0142
:1024600017821682838181FFC8C1CE0101965C016B
:10247000F7019381F30193FD859193FF81913F01D2
:10248000882309F453C1853239F493FD859193FF74
:1024900081913F01853229F4B70190E00E94161422
:1024A000E7CF912C212C312CFFE1F31538F08B3242
:1024B00011F190F4803209F1833229F137FC3CC0EC
:1024C00020ED280F2A3050F536FE20C08AE0989E75
:1024D000200D1124922E06C08D3291F0803371F7B9
:1024E000689430F8F30193FD859193FF81913F014A
:1024F0008111DACF21C0689431F8689432F8F2CFB4
:10250000689433F8EFCF689434F8ECCFEAE02E9E6D
:10251000200D1124222E689435F8E4CF8E3229F450
:1025200036FC04C1689436F8DDCF8C3619F4689413
:1025300037F8D8CF8836B1F2982F9F7D95549330D5
:10254000E0F08336A1F18337C1F1833509F063C030
:102550002801F2E04F0E511CF801C080D180692D96
:1025600070E036FC02C06FEF7FEFC6010E940014DE
:102570004C01689437F882010AC00C5F1F4FFFE3DB
:10258000F98388248394912C6501E89437F833FE0D
:102590002DC0522C8114910471F5552009F468CF97
:1025A000B70180E290E00E9416145A94F6CFF80129
:1025B000808189830E5F1F4FE4CF2801F2E04F0E28
:1025C000511CF801C080D180692D70E036FC02C03A
:1025D0006FEF7FEFC6010E940B144C018201D5CF33
:1025E000B70180E290E00E9416142A94281419047E
:1025F00009F0B0F7CECFF60137FC859137FE819117
:102600006F01B70190E00E94161451105A94F1E046
:102610008F1A9108BFCF843619F0893609F077C038
:10262000F80137FE6BC060817181828193810C5FFC
:102630001F4FF32DFF763F2E97FF09C09095809591
:10264000709561957F4F8F4F9F4F689437F82AE0C0
:1026500030E0A5010E944614C82ECA188C2C432CC9
:1026600036FE0CC0E89440F8C91440F434FE05C0AE
:1026700032FC03C0F32DFE7E4F2E892C44FE95C004
:10268000FE01EC0DF11D8081803309F087C0242DFF
:10269000297E422E842D8870582E43FC95C040FE22
:1026A0008FC09C2C821418F42C0C922C981844FE89
:1026B00091C0B70180E390E00E94161442FE09C069
:1026C00088E790E041FE02C088E590E0B7010E94F3
:1026D0001614C91408F48AC0CA94D12C9FEFC91AE1
:1026E000D90ACA0CDB1CF60182916F01B70190E098
:1026F0000E941614AC14BD04B1F74FCF60817181F4
:10270000072E000C880B990B0E5F1F4F92CFD32C16
:10271000E894D4F82AE030E0853739F1232D297F79
:10272000D22E8F3601F148F48835A9F0F701868161
:1027300097812B96E2E10C94C014803749F08837DA
:10274000A9F7D4FE02C06894D2F820E130E00DC0B1
:102750006894D4F8F6CF34FE03C0822F8660D82E5A
:1027600020E132E002C028E030E0F801D7FE0FC0DF
:1027700060817181828193810C5F1F4FA5010E944E
:102780004614C82ECA183D2CE89437F867CF6081EC
:10279000718190E080E00E5F1F4FF0CF42FC02C0DD
:1027A000839478CF8394839475CF842D867809F4AD
:1027B00071CFF6CFB70180E290E00E9416148394A7
:1027C0008214C0F3512C73CF522C5818821408F481
:1027D0006ECFF8CF842D867809F47BCF8BE241FE53
:1027E00080E247FC8DE2B70190E071CFB70180E352
:1027F00090E00E9416149A946CCF8FEF9FEF99CFC0
:10280000FC010590615070400110D8F780959095BB
:102810008E0F9F1F0895FC016150704001900110C0
:10282000D8F7809590958E0F9F1F08950F931F9353
:10283000CF93DF93182F092FEB018B8181FD09C006
:102840001FEF0FEF812F902FDF91CF911F910F91ED
:10285000089582FF14C02E813F818C819D812817AD
:1028600039073CF4E881F981CF0101969983888387
:1028700010838E819F8101969F838E83E3CFE885AD
:10288000F985812F0995892BA1F3DACFFA01AA27BF
:10289000283051F1203181F1E8946F936E7F6E5FA3
:1028A0007F4F8F4F9F4FAF4FB1E03ED0B4E03CD051
:1028B000670F781F891F9A1FA11D680F791F8A1F34
:1028C000911DA11D6A0F711D811D911DA11D20D09B
:1028D00009F468943F912AE0269F11243019305D55
:1028E0003193DEF6CF010895462F4770405D419346
:1028F000B3E00FD0C9F7F6CF462F4F70405D4A3393
:1029000018F0495D31FD4052419302D0A9F7EACF5A
:10291000B4E0A6959795879577956795BA95C9F789
:1029200000976105710508959B01AC010A2E06947C
:102930005795479537952795BA95C9F7620F731F35
:10294000841F951FA01D08952F923F924F925F9272
:102950006F927F928F929F92AF92BF92CF92DF92AF
:10296000EF92FF920F931F93CF93DF93CDB7DEB714
:10297000CA1BDB0B0FB6F894DEBF0FBECDBF0994A8
:102980002A88398848885F846E847D848C849B84FF
:10299000AA84B984C884DF80EE80FD800C811B810D
:1029A000AA81B981CE0FD11D0FB6F894DEBF0FBE3C
:1029B000CDBFED010895DB018F939F930E946115B8
:1029C000BF91AF91A29F800D911DA39F900DB29FCB
:1029D000900D11240895991B79E004C0991F961752
:1029E00008F0961B881F7A95C9F780950895AA1B51
:1029F000BB1B51E107C0AA1FBB1FA617B70710F0EA
:102A0000A61BB70B881F991F5A95A9F7809590951B
:102A1000BC01CD010895A1E21A2EAA1BBB1BFD012A
:102A20000DC0AA1FBB1FEE1FFF1FA217B307E407AD
:102A3000F50720F0A21BB30BE40BF50B661F771F05
:102A4000881F991F1A9469F76095709580959095E5
:102A50009B01AC01BD01CF010895052E97FB1EF42B
:102A600000940E94441557FD07D00E940B1507FCE7
:102A700003D04EF40C944415509540953095219513
:102A80003F4F4F4F5F4F089590958095709561959A
:102A90007F4F8F4F9F4F0895EE0FFF1F0590F491CA
:102AA000E02D0994A29FB001B39FC001A39F700DB8
:102AB000811D1124911DB29F700D811D1124911D46
:102AC00008950E945215A59F900DB49F900DA49F4C
:0C2AD000800D911D11240895F894FFCF93
:102ADC000F00F401D00704000401FFFFFFFF00E129
:102AEC0000000000000039023902390239023902B3
:102AFC009C01B501CF01EA010702260247026902D7
:102B0C008E02B502DE020A0300C1808100000000C3
:102B1C000000008403FF02A5039A03EB03A903C77B
:102B2C000300000000A3077607ED074C076F075C56
:062B3C00074D070D0A0021
:00000001FF
